{
  "contractName": "MyContract",
  "abi": [
    {
      "anonymous": false,
      "inputs": [
        {
          "indexed": true,
          "internalType": "uint256",
          "name": "id",
          "type": "uint256"
        },
        {
          "indexed": true,
          "internalType": "uint256",
          "name": "date",
          "type": "uint256"
        },
        {
          "indexed": true,
          "internalType": "string",
          "name": "value",
          "type": "string"
        }
      ],
      "name": "MyEvent",
      "type": "event"
    },
    {
      "inputs": [
        {
          "internalType": "string",
          "name": "value",
          "type": "string"
        }
      ],
      "name": "emitEvent",
      "outputs": [],
      "stateMutability": "nonpayable",
      "type": "function"
    }
  ],
  "bytecode": "0x608060405234801561001057600080fd5b5061027a806100206000396000f3fe608060405234801561001057600080fd5b506004361061002b5760003560e01c8063982296a814610030575b600080fd5b61004a6004803603810190610045919061011e565b61004c565b005b818160405161005c9291906101aa565b6040518091039020426000547fb471d59b9e8fe78ab0670c11fe84df6ab431139b43533ab6764e0b15b8d6c39a60405160405180910390a46000808154809291906100a6906101fc565b91905055505050565b600080fd5b600080fd5b600080fd5b600080fd5b600080fd5b60008083601f8401126100de576100dd6100b9565b5b8235905067ffffffffffffffff8111156100fb576100fa6100be565b5b602083019150836001820283011115610117576101166100c3565b5b9250929050565b60008060208385031215610135576101346100af565b5b600083013567ffffffffffffffff811115610153576101526100b4565b5b61015f858286016100c8565b92509250509250929050565b600081905092915050565b82818337600083830152505050565b6000610191838561016b565b935061019e838584610176565b82840190509392505050565b60006101b7828486610185565b91508190509392505050565b7f4e487b7100000000000000000000000000000000000000000000000000000000600052601160045260246000fd5b6000819050919050565b6000610207826101f2565b91507fffffffffffffffffffffffffffffffffffffffffffffffffffffffffffffffff8203610239576102386101c3565b5b60018201905091905056fea2646970667358221220d1d91701d5336d1fc7cd08299384a0e54d1c4f50bf831f981ad207c8e4894b5364736f6c634300080f0033",
  "immutableReferences": {},
  "source": "pragma solidity ^0.8.0;\n\ncontract MyContract {\n\nevent MyEvent (\n    uint indexed id,\n    uint indexed date,\n    string indexed value\n);\n\nuint nextId;\n\nfunction emitEvent(string calldata value) external {\n    emit MyEvent(nextId, block.timestamp, value);\n    nextId++;\n}\n\n}",
  "sourcePath": "/Users/lance/Dropbox/projects-git-win/practice/eatblocks/events/contracts/MyContract.sol",
  "compiler": {
    "name": "solc",
    "version": "0.8.15+commit.e14f2714.Emscripten.clang"
  },
  "schemaVersion": "3.4.8",
  "updatedAt": "2022-08-21T03:51:13.607Z",
  "networkType": "ethereum",
  "devdoc": {
    "kind": "dev",
    "methods": {},
    "version": 1
  },
  "userdoc": {
    "kind": "user",
    "methods": {},
    "version": 1
  }
}